{
  "_format": "hh-sol-artifact-1",
  "contractName": "MarketPlace",
  "sourceName": "contracts/MarketPlace.sol",
  "abi": [
    {
      "inputs": [
        {
          "internalType": "address",
          "name": "_nftAddress",
          "type": "address"
        }
      ],
      "stateMutability": "nonpayable",
      "type": "constructor"
    },
    {
      "inputs": [
        {
          "internalType": "uint256",
          "name": "_tokenId",
          "type": "uint256"
        },
        {
          "internalType": "address",
          "name": "_author",
          "type": "address"
        },
        {
          "internalType": "uint256",
          "name": "_price",
          "type": "uint256"
        }
      ],
      "name": "addBook",
      "outputs": [],
      "stateMutability": "nonpayable",
      "type": "function"
    },
    {
      "inputs": [],
      "name": "authorClaim",
      "outputs": [],
      "stateMutability": "nonpayable",
      "type": "function"
    },
    {
      "inputs": [
        {
          "internalType": "address",
          "name": "",
          "type": "address"
        }
      ],
      "name": "authorOwed",
      "outputs": [
        {
          "internalType": "uint256",
          "name": "",
          "type": "uint256"
        }
      ],
      "stateMutability": "view",
      "type": "function"
    },
    {
      "inputs": [
        {
          "internalType": "uint256",
          "name": "_tokenId",
          "type": "uint256"
        }
      ],
      "name": "borrowNFT",
      "outputs": [],
      "stateMutability": "payable",
      "type": "function"
    },
    {
      "inputs": [
        {
          "internalType": "address",
          "name": "_newNFT",
          "type": "address"
        }
      ],
      "name": "changeNFT",
      "outputs": [],
      "stateMutability": "nonpayable",
      "type": "function"
    },
    {
      "inputs": [],
      "name": "cycle",
      "outputs": [
        {
          "internalType": "uint256",
          "name": "",
          "type": "uint256"
        }
      ],
      "stateMutability": "view",
      "type": "function"
    },
    {
      "inputs": [
        {
          "internalType": "uint256",
          "name": "_tokenId",
          "type": "uint256"
        }
      ],
      "name": "extend",
      "outputs": [],
      "stateMutability": "payable",
      "type": "function"
    },
    {
      "inputs": [
        {
          "internalType": "uint256",
          "name": "",
          "type": "uint256"
        }
      ],
      "name": "idToBook",
      "outputs": [
        {
          "internalType": "address",
          "name": "author",
          "type": "address"
        },
        {
          "internalType": "uint256",
          "name": "price",
          "type": "uint256"
        }
      ],
      "stateMutability": "view",
      "type": "function"
    },
    {
      "inputs": [
        {
          "internalType": "uint256",
          "name": "",
          "type": "uint256"
        }
      ],
      "name": "idToDeets",
      "outputs": [
        {
          "internalType": "uint256",
          "name": "tokenId",
          "type": "uint256"
        },
        {
          "internalType": "uint256",
          "name": "borrowTime",
          "type": "uint256"
        },
        {
          "internalType": "uint256",
          "name": "expiration",
          "type": "uint256"
        }
      ],
      "stateMutability": "view",
      "type": "function"
    },
    {
      "inputs": [
        {
          "internalType": "uint256",
          "name": "_tokenId",
          "type": "uint256"
        }
      ],
      "name": "liquidate",
      "outputs": [],
      "stateMutability": "nonpayable",
      "type": "function"
    },
    {
      "inputs": [],
      "name": "nftContract",
      "outputs": [
        {
          "internalType": "contract IPublicLock",
          "name": "",
          "type": "address"
        }
      ],
      "stateMutability": "view",
      "type": "function"
    },
    {
      "inputs": [],
      "name": "owner",
      "outputs": [
        {
          "internalType": "address",
          "name": "",
          "type": "address"
        }
      ],
      "stateMutability": "view",
      "type": "function"
    },
    {
      "inputs": [
        {
          "internalType": "uint256",
          "name": "_tokenId",
          "type": "uint256"
        }
      ],
      "name": "returnNFT",
      "outputs": [],
      "stateMutability": "nonpayable",
      "type": "function"
    },
    {
      "inputs": [
        {
          "internalType": "address",
          "name": "_authorAddress",
          "type": "address"
        },
        {
          "internalType": "uint256",
          "name": "_tokenId",
          "type": "uint256"
        }
      ],
      "name": "setAuthorAddress",
      "outputs": [],
      "stateMutability": "nonpayable",
      "type": "function"
    },
    {
      "inputs": [
        {
          "internalType": "address",
          "name": "_oldAuthor",
          "type": "address"
        },
        {
          "internalType": "address",
          "name": "_newAuthor",
          "type": "address"
        }
      ],
      "name": "transferAuthors",
      "outputs": [],
      "stateMutability": "nonpayable",
      "type": "function"
    }
  ],
  "bytecode": "0x60806040523480156200001157600080fd5b506040516200192838038062001928833981810160405281019062000037919062000129565b806000806101000a81548173ffffffffffffffffffffffffffffffffffffffff021916908373ffffffffffffffffffffffffffffffffffffffff16021790555033600160006101000a81548173ffffffffffffffffffffffffffffffffffffffff021916908373ffffffffffffffffffffffffffffffffffffffff160217905550506200015b565b600080fd5b600073ffffffffffffffffffffffffffffffffffffffff82169050919050565b6000620000f182620000c4565b9050919050565b6200010381620000e4565b81146200010f57600080fd5b50565b6000815190506200012381620000f8565b92915050565b600060208284031215620001425762000141620000bf565b5b6000620001528482850162000112565b91505092915050565b6117bd806200016b6000396000f3fe6080604052600436106100e85760003560e01c80639714378c1161008a578063b7e127a311610059578063b7e127a31461029e578063c3fa3194146102db578063d56d229d14610319578063dda0fab214610344576100e8565b80639714378c146102075780639cd00e4614610223578063a907dded1461024c578063b0cd2aa014610275576100e8565b80636190c9d5116100c65780636190c9d51461015b5780637e2ba0f7146101865780638da5cb5b1461019d578063918545c1146101c8576100e8565b8063415f1240146100ed578063529062fa14610116578063612bf38114610132575b600080fd5b3480156100f957600080fd5b50610114600480360381019061010f9190611259565b61036d565b005b610130600480360381019061012b9190611259565b61044a565b005b34801561013e57600080fd5b50610159600480360381019061015491906112e4565b6106fc565b005b34801561016757600080fd5b50610170610856565b60405161017d9190611333565b60405180910390f35b34801561019257600080fd5b5061019b61085d565b005b3480156101a957600080fd5b506101b261099a565b6040516101bf919061135d565b60405180910390f35b3480156101d457600080fd5b506101ef60048036038101906101ea9190611259565b6109c0565b6040516101fe93929190611378565b60405180910390f35b610221600480360381019061021c9190611259565b6109ea565b005b34801561022f57600080fd5b5061024a600480360381019061024591906113af565b610bb2565b005b34801561025857600080fd5b50610273600480360381019061026e91906113ef565b610c9b565b005b34801561028157600080fd5b5061029c60048036038101906102979190611259565b610d6e565b005b3480156102aa57600080fd5b506102c560048036038101906102c091906113ef565b611077565b6040516102d29190611333565b60405180910390f35b3480156102e757600080fd5b5061030260048036038101906102fd9190611259565b61108f565b60405161031092919061141c565b60405180910390f35b34801561032557600080fd5b5061032e6110d3565b60405161033b91906114a4565b60405180910390f35b34801561035057600080fd5b5061036b600480360381019061036691906114bf565b6110f7565b005b42600360008381526020019081526020016000206002015411156104475760008054906101000a900473ffffffffffffffffffffffffffffffffffffffff1673ffffffffffffffffffffffffffffffffffffffff1663407dc58930836040518363ffffffff1660e01b81526004016103e692919061141c565b600060405180830381600087803b15801561040057600080fd5b505af1158015610414573d6000803e3d6000fd5b50505050600360008281526020019081526020016000206000808201600090556001820160009055600282016000905550505b50565b3073ffffffffffffffffffffffffffffffffffffffff1660008054906101000a900473ffffffffffffffffffffffffffffffffffffffff1673ffffffffffffffffffffffffffffffffffffffff16636352211e836040518263ffffffff1660e01b81526004016104ba9190611333565b602060405180830381865afa1580156104d7573d6000803e3d6000fd5b505050506040513d601f19601f820116820180604052508101906104fb9190611527565b73ffffffffffffffffffffffffffffffffffffffff161461051b57600080fd5b6002600082815260200190815260200160002060010154341161053d57600080fd5b60008054906101000a900473ffffffffffffffffffffffffffffffffffffffff1673ffffffffffffffffffffffffffffffffffffffff16630c2db8d13033846040518463ffffffff1660e01b815260040161059a93929190611554565b600060405180830381600087803b1580156105b457600080fd5b505af11580156105c8573d6000803e3d6000fd5b5050505060006213c6806002600084815260200190815260200160002060010154346105f491906115e9565b6105fe919061161a565b90506000814261060e919061165c565b905060405180606001604052808481526020014281526020018281525060036000858152602001908152602001600020600082015181600001556020820151816001015560408201518160020155905050600a3461066c91906115e9565b600460006002600087815260200190815260200160002060000160009054906101000a900473ffffffffffffffffffffffffffffffffffffffff1673ffffffffffffffffffffffffffffffffffffffff1673ffffffffffffffffffffffffffffffffffffffff16815260200190815260200160002060008282546106f0919061165c565b92505081905550505050565b600160009054906101000a900473ffffffffffffffffffffffffffffffffffffffff1673ffffffffffffffffffffffffffffffffffffffff163373ffffffffffffffffffffffffffffffffffffffff161461078c576040517f08c379a0000000000000000000000000000000000000000000000000000000008152600401610783906116ed565b60405180910390fd5b600460008373ffffffffffffffffffffffffffffffffffffffff1673ffffffffffffffffffffffffffffffffffffffff16815260200190815260200160002054600460008373ffffffffffffffffffffffffffffffffffffffff1673ffffffffffffffffffffffffffffffffffffffff16815260200190815260200160002081905550600460008373ffffffffffffffffffffffffffffffffffffffff1673ffffffffffffffffffffffffffffffffffffffff168152602001908152602001600020600090555050565b6213c68081565b6000600460003373ffffffffffffffffffffffffffffffffffffffff1673ffffffffffffffffffffffffffffffffffffffff16815260200190815260200160002054116108a957600080fd5b60003373ffffffffffffffffffffffffffffffffffffffff16600460003373ffffffffffffffffffffffffffffffffffffffff1673ffffffffffffffffffffffffffffffffffffffff1681526020019081526020016000205460405161090e9061173e565b60006040518083038185875af1925050503d806000811461094b576040519150601f19603f3d011682016040523d82523d6000602084013e610950565b606091505b50509050600460003373ffffffffffffffffffffffffffffffffffffffff1673ffffffffffffffffffffffffffffffffffffffff1681526020019081526020016000206000905550565b600160009054906101000a900473ffffffffffffffffffffffffffffffffffffffff1681565b60036020528060005260406000206000915090508060000154908060010154908060020154905083565b3373ffffffffffffffffffffffffffffffffffffffff1660008054906101000a900473ffffffffffffffffffffffffffffffffffffffff1673ffffffffffffffffffffffffffffffffffffffff16636352211e836040518263ffffffff1660e01b8152600401610a5a9190611333565b602060405180830381865afa158015610a77573d6000803e3d6000fd5b505050506040513d601f19601f82011682018060405250810190610a9b9190611527565b73ffffffffffffffffffffffffffffffffffffffff1614610abb57600080fd5b6213c680600260008381526020019081526020016000206001015434610ae191906115e9565b610aeb919061161a565b600360008381526020019081526020016000206002016000828254610b10919061165c565b92505081905550600a34610b2491906115e9565b600460006002600085815260200190815260200160002060000160009054906101000a900473ffffffffffffffffffffffffffffffffffffffff1673ffffffffffffffffffffffffffffffffffffffff1673ffffffffffffffffffffffffffffffffffffffff1681526020019081526020016000206000828254610ba8919061165c565b9250508190555050565b600160009054906101000a900473ffffffffffffffffffffffffffffffffffffffff1673ffffffffffffffffffffffffffffffffffffffff163373ffffffffffffffffffffffffffffffffffffffff1614610c42576040517f08c379a0000000000000000000000000000000000000000000000000000000008152600401610c39906116ed565b60405180910390fd5b816002600083815260200190815260200160002060000160006101000a81548173ffffffffffffffffffffffffffffffffffffffff021916908373ffffffffffffffffffffffffffffffffffffffff1602179055505050565b600160009054906101000a900473ffffffffffffffffffffffffffffffffffffffff1673ffffffffffffffffffffffffffffffffffffffff163373ffffffffffffffffffffffffffffffffffffffff1614610d2b576040517f08c379a0000000000000000000000000000000000000000000000000000000008152600401610d22906116ed565b60405180910390fd5b806000806101000a81548173ffffffffffffffffffffffffffffffffffffffff021916908373ffffffffffffffffffffffffffffffffffffffff16021790555050565b3373ffffffffffffffffffffffffffffffffffffffff1660008054906101000a900473ffffffffffffffffffffffffffffffffffffffff1673ffffffffffffffffffffffffffffffffffffffff16636352211e836040518263ffffffff1660e01b8152600401610dde9190611333565b602060405180830381865afa158015610dfb573d6000803e3d6000fd5b505050506040513d601f19601f82011682018060405250810190610e1f9190611527565b73ffffffffffffffffffffffffffffffffffffffff1614610e3f57600080fd5b60008054906101000a900473ffffffffffffffffffffffffffffffffffffffff1673ffffffffffffffffffffffffffffffffffffffff1663407dc58930836040518363ffffffff1660e01b8152600401610e9a92919061141c565b600060405180830381600087803b158015610eb457600080fd5b505af1158015610ec8573d6000803e3d6000fd5b50505050426003600083815260200190815260200160002060020154101561104657600060026000838152602001908152602001600020600101546213c680426003600086815260200190815260200160002060020154610f299190611753565b610f3391906115e9565b610f3d919061161a565b905060003373ffffffffffffffffffffffffffffffffffffffff1682604051610f659061173e565b60006040518083038185875af1925050503d8060008114610fa2576040519150601f19603f3d011682016040523d82523d6000602084013e610fa7565b606091505b50509050600a82610fb891906115e9565b600460006002600087815260200190815260200160002060000160009054906101000a900473ffffffffffffffffffffffffffffffffffffffff1673ffffffffffffffffffffffffffffffffffffffff1673ffffffffffffffffffffffffffffffffffffffff168152602001908152602001600020600082825461103c9190611753565b9250508190555050505b6003600082815260200190815260200160002060008082016000905560018201600090556002820160009055505050565b60046020528060005260406000206000915090505481565b60026020528060005260406000206000915090508060000160009054906101000a900473ffffffffffffffffffffffffffffffffffffffff16908060010154905082565b60008054906101000a900473ffffffffffffffffffffffffffffffffffffffff1681565b600160009054906101000a900473ffffffffffffffffffffffffffffffffffffffff1673ffffffffffffffffffffffffffffffffffffffff163373ffffffffffffffffffffffffffffffffffffffff1614611187576040517f08c379a000000000000000000000000000000000000000000000000000000000815260040161117e906116ed565b60405180910390fd5b60405180604001604052808373ffffffffffffffffffffffffffffffffffffffff168152602001828152506002600085815260200190815260200160002060008201518160000160006101000a81548173ffffffffffffffffffffffffffffffffffffffff021916908373ffffffffffffffffffffffffffffffffffffffff16021790555060208201518160010155905050505050565b600080fd5b6000819050919050565b61123681611223565b811461124157600080fd5b50565b6000813590506112538161122d565b92915050565b60006020828403121561126f5761126e61121e565b5b600061127d84828501611244565b91505092915050565b600073ffffffffffffffffffffffffffffffffffffffff82169050919050565b60006112b182611286565b9050919050565b6112c1816112a6565b81146112cc57600080fd5b50565b6000813590506112de816112b8565b92915050565b600080604083850312156112fb576112fa61121e565b5b6000611309858286016112cf565b925050602061131a858286016112cf565b9150509250929050565b61132d81611223565b82525050565b60006020820190506113486000830184611324565b92915050565b611357816112a6565b82525050565b6000602082019050611372600083018461134e565b92915050565b600060608201905061138d6000830186611324565b61139a6020830185611324565b6113a76040830184611324565b949350505050565b600080604083850312156113c6576113c561121e565b5b60006113d4858286016112cf565b92505060206113e585828601611244565b9150509250929050565b6000602082840312156114055761140461121e565b5b6000611413848285016112cf565b91505092915050565b6000604082019050611431600083018561134e565b61143e6020830184611324565b9392505050565b6000819050919050565b600061146a61146561146084611286565b611445565b611286565b9050919050565b600061147c8261144f565b9050919050565b600061148e82611471565b9050919050565b61149e81611483565b82525050565b60006020820190506114b96000830184611495565b92915050565b6000806000606084860312156114d8576114d761121e565b5b60006114e686828701611244565b93505060206114f7868287016112cf565b925050604061150886828701611244565b9150509250925092565b600081519050611521816112b8565b92915050565b60006020828403121561153d5761153c61121e565b5b600061154b84828501611512565b91505092915050565b6000606082019050611569600083018661134e565b611576602083018561134e565b6115836040830184611324565b949350505050565b7f4e487b7100000000000000000000000000000000000000000000000000000000600052601260045260246000fd5b7f4e487b7100000000000000000000000000000000000000000000000000000000600052601160045260246000fd5b60006115f482611223565b91506115ff83611223565b92508261160f5761160e61158b565b5b828204905092915050565b600061162582611223565b915061163083611223565b925082820261163e81611223565b91508282048414831517611655576116546115ba565b5b5092915050565b600061166782611223565b915061167283611223565b925082820190508082111561168a576116896115ba565b5b92915050565b600082825260208201905092915050565b7f216f776e65720000000000000000000000000000000000000000000000000000600082015250565b60006116d7600683611690565b91506116e2826116a1565b602082019050919050565b60006020820190508181036000830152611706816116ca565b9050919050565b600081905092915050565b50565b600061172860008361170d565b915061173382611718565b600082019050919050565b60006117498261171b565b9150819050919050565b600061175e82611223565b915061176983611223565b9250828203905081811115611781576117806115ba565b5b9291505056fea26469706673582212207429c9f6f910f727276dc23fa6a28fb3ec9f766acb6b6db11346c2ff221b958964736f6c63430008110033",
  "linkReferences": {},
  "deployedLinkReferences": {}
}