{
  "_format": "hh-sol-artifact-1",
  "contractName": "MarketPlace",
  "sourceName": "contracts/MarketPlace.sol",
  "abi": [
    {
      "inputs": [
        {
          "internalType": "address",
          "name": "_nftAddress",
          "type": "address"
        }
      ],
      "stateMutability": "nonpayable",
      "type": "constructor"
    },
    {
      "inputs": [
        {
          "internalType": "uint256",
          "name": "_tokenId",
          "type": "uint256"
        },
        {
          "internalType": "address",
          "name": "_author",
          "type": "address"
        },
        {
          "internalType": "uint256",
          "name": "_price",
          "type": "uint256"
        }
      ],
      "name": "addBook",
      "outputs": [],
      "stateMutability": "nonpayable",
      "type": "function"
    },
    {
      "inputs": [],
      "name": "authorClaim",
      "outputs": [],
      "stateMutability": "nonpayable",
      "type": "function"
    },
    {
      "inputs": [
        {
          "internalType": "address",
          "name": "",
          "type": "address"
        }
      ],
      "name": "authorOwed",
      "outputs": [
        {
          "internalType": "uint256",
          "name": "",
          "type": "uint256"
        }
      ],
      "stateMutability": "view",
      "type": "function"
    },
    {
      "inputs": [
        {
          "internalType": "uint256",
          "name": "_tokenId",
          "type": "uint256"
        }
      ],
      "name": "borrowNFT",
      "outputs": [],
      "stateMutability": "payable",
      "type": "function"
    },
    {
      "inputs": [
        {
          "internalType": "address",
          "name": "_newNFT",
          "type": "address"
        }
      ],
      "name": "changeNFT",
      "outputs": [],
      "stateMutability": "nonpayable",
      "type": "function"
    },
    {
      "inputs": [],
      "name": "cycle",
      "outputs": [
        {
          "internalType": "uint256",
          "name": "",
          "type": "uint256"
        }
      ],
      "stateMutability": "view",
      "type": "function"
    },
    {
      "inputs": [
        {
          "internalType": "uint256",
          "name": "_tokenId",
          "type": "uint256"
        }
      ],
      "name": "extend",
      "outputs": [],
      "stateMutability": "payable",
      "type": "function"
    },
    {
      "inputs": [
        {
          "internalType": "uint256",
          "name": "",
          "type": "uint256"
        }
      ],
      "name": "idToBook",
      "outputs": [
        {
          "internalType": "address",
          "name": "author",
          "type": "address"
        },
        {
          "internalType": "uint256",
          "name": "price",
          "type": "uint256"
        }
      ],
      "stateMutability": "view",
      "type": "function"
    },
    {
      "inputs": [
        {
          "internalType": "uint256",
          "name": "",
          "type": "uint256"
        }
      ],
      "name": "idToDeets",
      "outputs": [
        {
          "internalType": "uint256",
          "name": "tokenId",
          "type": "uint256"
        },
        {
          "internalType": "uint256",
          "name": "borrowTime",
          "type": "uint256"
        },
        {
          "internalType": "uint256",
          "name": "expiration",
          "type": "uint256"
        }
      ],
      "stateMutability": "view",
      "type": "function"
    },
    {
      "inputs": [
        {
          "internalType": "uint256",
          "name": "_tokenId",
          "type": "uint256"
        }
      ],
      "name": "liquidate",
      "outputs": [],
      "stateMutability": "nonpayable",
      "type": "function"
    },
    {
      "inputs": [],
      "name": "nftContract",
      "outputs": [
        {
          "internalType": "contract IPublicLock",
          "name": "",
          "type": "address"
        }
      ],
      "stateMutability": "view",
      "type": "function"
    },
    {
      "inputs": [],
      "name": "owner",
      "outputs": [
        {
          "internalType": "address",
          "name": "",
          "type": "address"
        }
      ],
      "stateMutability": "view",
      "type": "function"
    },
    {
      "inputs": [
        {
          "internalType": "uint256",
          "name": "_tokenId",
          "type": "uint256"
        }
      ],
      "name": "returnNFT",
      "outputs": [],
      "stateMutability": "nonpayable",
      "type": "function"
    },
    {
      "inputs": [
        {
          "internalType": "address",
          "name": "_authorAddress",
          "type": "address"
        },
        {
          "internalType": "uint256",
          "name": "_tokenId",
          "type": "uint256"
        }
      ],
      "name": "setAuthorAddress",
      "outputs": [],
      "stateMutability": "nonpayable",
      "type": "function"
    },
    {
      "inputs": [
        {
          "internalType": "address",
          "name": "_oldAuthor",
          "type": "address"
        },
        {
          "internalType": "address",
          "name": "_newAuthor",
          "type": "address"
        }
      ],
      "name": "transferAuthors",
      "outputs": [],
      "stateMutability": "nonpayable",
      "type": "function"
    }
  ],
  "bytecode": "0x60806040523480156200001157600080fd5b5060405162001aa238038062001aa2833981810160405281019062000037919062000129565b806000806101000a81548173ffffffffffffffffffffffffffffffffffffffff021916908373ffffffffffffffffffffffffffffffffffffffff16021790555033600160006101000a81548173ffffffffffffffffffffffffffffffffffffffff021916908373ffffffffffffffffffffffffffffffffffffffff160217905550506200015b565b600080fd5b600073ffffffffffffffffffffffffffffffffffffffff82169050919050565b6000620000f182620000c4565b9050919050565b6200010381620000e4565b81146200010f57600080fd5b50565b6000815190506200012381620000f8565b92915050565b600060208284031215620001425762000141620000bf565b5b6000620001528482850162000112565b91505092915050565b611937806200016b6000396000f3fe6080604052600436106100e85760003560e01c80639714378c1161008a578063b7e127a311610059578063b7e127a31461029e578063c3fa3194146102db578063d56d229d14610319578063dda0fab214610344576100e8565b80639714378c146102075780639cd00e4614610223578063a907dded1461024c578063b0cd2aa014610275576100e8565b80636190c9d5116100c65780636190c9d51461015b5780637e2ba0f7146101865780638da5cb5b1461019d578063918545c1146101c8576100e8565b8063415f1240146100ed578063529062fa14610116578063612bf38114610132575b600080fd5b3480156100f957600080fd5b50610114600480360381019061010f91906112fb565b61036d565b005b610130600480360381019061012b91906112fb565b61044a565b005b34801561013e57600080fd5b5061015960048036038101906101549190611386565b610768565b005b34801561016757600080fd5b506101706108c2565b60405161017d91906113d5565b60405180910390f35b34801561019257600080fd5b5061019b6108c9565b005b3480156101a957600080fd5b506101b2610a06565b6040516101bf91906113ff565b60405180910390f35b3480156101d457600080fd5b506101ef60048036038101906101ea91906112fb565b610a2c565b6040516101fe9392919061141a565b60405180910390f35b610221600480360381019061021c91906112fb565b610a56565b005b34801561022f57600080fd5b5061024a60048036038101906102459190611451565b610c1e565b005b34801561025857600080fd5b50610273600480360381019061026e9190611491565b610d07565b005b34801561028157600080fd5b5061029c600480360381019061029791906112fb565b610dda565b005b3480156102aa57600080fd5b506102c560048036038101906102c09190611491565b611119565b6040516102d291906113d5565b60405180910390f35b3480156102e757600080fd5b5061030260048036038101906102fd91906112fb565b611131565b6040516103109291906114be565b60405180910390f35b34801561032557600080fd5b5061032e611175565b60405161033b9190611546565b60405180910390f35b34801561035057600080fd5b5061036b60048036038101906103669190611561565b611199565b005b42600360008381526020019081526020016000206002015411156104475760008054906101000a900473ffffffffffffffffffffffffffffffffffffffff1673ffffffffffffffffffffffffffffffffffffffff1663407dc58930836040518363ffffffff1660e01b81526004016103e69291906114be565b600060405180830381600087803b15801561040057600080fd5b505af1158015610414573d6000803e3d6000fd5b50505050600360008281526020019081526020016000206000808201600090556001820160009055600282016000905550505b50565b3073ffffffffffffffffffffffffffffffffffffffff1660008054906101000a900473ffffffffffffffffffffffffffffffffffffffff1673ffffffffffffffffffffffffffffffffffffffff16636352211e836040518263ffffffff1660e01b81526004016104ba91906113d5565b602060405180830381865afa1580156104d7573d6000803e3d6000fd5b505050506040513d601f19601f820116820180604052508101906104fb91906115c9565b73ffffffffffffffffffffffffffffffffffffffff1614610551576040517f08c379a000000000000000000000000000000000000000000000000000000000815260040161054890611653565b60405180910390fd5b600260008281526020019081526020016000206001015434116105a9576040517f08c379a00000000000000000000000000000000000000000000000000000000081526004016105a0906116bf565b60405180910390fd5b60008054906101000a900473ffffffffffffffffffffffffffffffffffffffff1673ffffffffffffffffffffffffffffffffffffffff16630c2db8d13033846040518463ffffffff1660e01b8152600401610606939291906116df565b600060405180830381600087803b15801561062057600080fd5b505af1158015610634573d6000803e3d6000fd5b5050505060006213c6806002600084815260200190815260200160002060010154346106609190611774565b61066a91906117a5565b90506000814261067a91906117e7565b905060405180606001604052808481526020014281526020018281525060036000858152602001908152602001600020600082015181600001556020820151816001015560408201518160020155905050600a346106d89190611774565b600460006002600087815260200190815260200160002060000160009054906101000a900473ffffffffffffffffffffffffffffffffffffffff1673ffffffffffffffffffffffffffffffffffffffff1673ffffffffffffffffffffffffffffffffffffffff168152602001908152602001600020600082825461075c91906117e7565b92505081905550505050565b600160009054906101000a900473ffffffffffffffffffffffffffffffffffffffff1673ffffffffffffffffffffffffffffffffffffffff163373ffffffffffffffffffffffffffffffffffffffff16146107f8576040517f08c379a00000000000000000000000000000000000000000000000000000000081526004016107ef90611867565b60405180910390fd5b600460008373ffffffffffffffffffffffffffffffffffffffff1673ffffffffffffffffffffffffffffffffffffffff16815260200190815260200160002054600460008373ffffffffffffffffffffffffffffffffffffffff1673ffffffffffffffffffffffffffffffffffffffff16815260200190815260200160002081905550600460008373ffffffffffffffffffffffffffffffffffffffff1673ffffffffffffffffffffffffffffffffffffffff168152602001908152602001600020600090555050565b6213c68081565b6000600460003373ffffffffffffffffffffffffffffffffffffffff1673ffffffffffffffffffffffffffffffffffffffff168152602001908152602001600020541161091557600080fd5b60003373ffffffffffffffffffffffffffffffffffffffff16600460003373ffffffffffffffffffffffffffffffffffffffff1673ffffffffffffffffffffffffffffffffffffffff1681526020019081526020016000205460405161097a906118b8565b60006040518083038185875af1925050503d80600081146109b7576040519150601f19603f3d011682016040523d82523d6000602084013e6109bc565b606091505b50509050600460003373ffffffffffffffffffffffffffffffffffffffff1673ffffffffffffffffffffffffffffffffffffffff1681526020019081526020016000206000905550565b600160009054906101000a900473ffffffffffffffffffffffffffffffffffffffff1681565b60036020528060005260406000206000915090508060000154908060010154908060020154905083565b3373ffffffffffffffffffffffffffffffffffffffff1660008054906101000a900473ffffffffffffffffffffffffffffffffffffffff1673ffffffffffffffffffffffffffffffffffffffff16636352211e836040518263ffffffff1660e01b8152600401610ac691906113d5565b602060405180830381865afa158015610ae3573d6000803e3d6000fd5b505050506040513d601f19601f82011682018060405250810190610b0791906115c9565b73ffffffffffffffffffffffffffffffffffffffff1614610b2757600080fd5b6213c680600260008381526020019081526020016000206001015434610b4d9190611774565b610b5791906117a5565b600360008381526020019081526020016000206002016000828254610b7c91906117e7565b92505081905550600a34610b909190611774565b600460006002600085815260200190815260200160002060000160009054906101000a900473ffffffffffffffffffffffffffffffffffffffff1673ffffffffffffffffffffffffffffffffffffffff1673ffffffffffffffffffffffffffffffffffffffff1681526020019081526020016000206000828254610c1491906117e7565b9250508190555050565b600160009054906101000a900473ffffffffffffffffffffffffffffffffffffffff1673ffffffffffffffffffffffffffffffffffffffff163373ffffffffffffffffffffffffffffffffffffffff1614610cae576040517f08c379a0000000000000000000000000000000000000000000000000000000008152600401610ca590611867565b60405180910390fd5b816002600083815260200190815260200160002060000160006101000a81548173ffffffffffffffffffffffffffffffffffffffff021916908373ffffffffffffffffffffffffffffffffffffffff1602179055505050565b600160009054906101000a900473ffffffffffffffffffffffffffffffffffffffff1673ffffffffffffffffffffffffffffffffffffffff163373ffffffffffffffffffffffffffffffffffffffff1614610d97576040517f08c379a0000000000000000000000000000000000000000000000000000000008152600401610d8e90611867565b60405180910390fd5b806000806101000a81548173ffffffffffffffffffffffffffffffffffffffff021916908373ffffffffffffffffffffffffffffffffffffffff16021790555050565b3373ffffffffffffffffffffffffffffffffffffffff1660008054906101000a900473ffffffffffffffffffffffffffffffffffffffff1673ffffffffffffffffffffffffffffffffffffffff16636352211e836040518263ffffffff1660e01b8152600401610e4a91906113d5565b602060405180830381865afa158015610e67573d6000803e3d6000fd5b505050506040513d601f19601f82011682018060405250810190610e8b91906115c9565b73ffffffffffffffffffffffffffffffffffffffff1614610ee1576040517f08c379a0000000000000000000000000000000000000000000000000000000008152600401610ed890611867565b60405180910390fd5b60008054906101000a900473ffffffffffffffffffffffffffffffffffffffff1673ffffffffffffffffffffffffffffffffffffffff1663407dc58930836040518363ffffffff1660e01b8152600401610f3c9291906114be565b600060405180830381600087803b158015610f5657600080fd5b505af1158015610f6a573d6000803e3d6000fd5b5050505042600360008381526020019081526020016000206002015410156110e857600060026000838152602001908152602001600020600101546213c680426003600086815260200190815260200160002060020154610fcb91906118cd565b610fd59190611774565b610fdf91906117a5565b905060003373ffffffffffffffffffffffffffffffffffffffff1682604051611007906118b8565b60006040518083038185875af1925050503d8060008114611044576040519150601f19603f3d011682016040523d82523d6000602084013e611049565b606091505b50509050600a8261105a9190611774565b600460006002600087815260200190815260200160002060000160009054906101000a900473ffffffffffffffffffffffffffffffffffffffff1673ffffffffffffffffffffffffffffffffffffffff1673ffffffffffffffffffffffffffffffffffffffff16815260200190815260200160002060008282546110de91906118cd565b9250508190555050505b6003600082815260200190815260200160002060008082016000905560018201600090556002820160009055505050565b60046020528060005260406000206000915090505481565b60026020528060005260406000206000915090508060000160009054906101000a900473ffffffffffffffffffffffffffffffffffffffff16908060010154905082565b60008054906101000a900473ffffffffffffffffffffffffffffffffffffffff1681565b600160009054906101000a900473ffffffffffffffffffffffffffffffffffffffff1673ffffffffffffffffffffffffffffffffffffffff163373ffffffffffffffffffffffffffffffffffffffff1614611229576040517f08c379a000000000000000000000000000000000000000000000000000000000815260040161122090611867565b60405180910390fd5b60405180604001604052808373ffffffffffffffffffffffffffffffffffffffff168152602001828152506002600085815260200190815260200160002060008201518160000160006101000a81548173ffffffffffffffffffffffffffffffffffffffff021916908373ffffffffffffffffffffffffffffffffffffffff16021790555060208201518160010155905050505050565b600080fd5b6000819050919050565b6112d8816112c5565b81146112e357600080fd5b50565b6000813590506112f5816112cf565b92915050565b600060208284031215611311576113106112c0565b5b600061131f848285016112e6565b91505092915050565b600073ffffffffffffffffffffffffffffffffffffffff82169050919050565b600061135382611328565b9050919050565b61136381611348565b811461136e57600080fd5b50565b6000813590506113808161135a565b92915050565b6000806040838503121561139d5761139c6112c0565b5b60006113ab85828601611371565b92505060206113bc85828601611371565b9150509250929050565b6113cf816112c5565b82525050565b60006020820190506113ea60008301846113c6565b92915050565b6113f981611348565b82525050565b600060208201905061141460008301846113f0565b92915050565b600060608201905061142f60008301866113c6565b61143c60208301856113c6565b61144960408301846113c6565b949350505050565b60008060408385031215611468576114676112c0565b5b600061147685828601611371565b9250506020611487858286016112e6565b9150509250929050565b6000602082840312156114a7576114a66112c0565b5b60006114b584828501611371565b91505092915050565b60006040820190506114d360008301856113f0565b6114e060208301846113c6565b9392505050565b6000819050919050565b600061150c61150761150284611328565b6114e7565b611328565b9050919050565b600061151e826114f1565b9050919050565b600061153082611513565b9050919050565b61154081611525565b82525050565b600060208201905061155b6000830184611537565b92915050565b60008060006060848603121561157a576115796112c0565b5b6000611588868287016112e6565b935050602061159986828701611371565b92505060406115aa868287016112e6565b9150509250925092565b6000815190506115c38161135a565b92915050565b6000602082840312156115df576115de6112c0565b5b60006115ed848285016115b4565b91505092915050565b600082825260208201905092915050565b7f2173616c65000000000000000000000000000000000000000000000000000000600082015250565b600061163d6005836115f6565b915061164882611607565b602082019050919050565b6000602082019050818103600083015261166c81611630565b9050919050565b7f2165746800000000000000000000000000000000000000000000000000000000600082015250565b60006116a96004836115f6565b91506116b482611673565b602082019050919050565b600060208201905081810360008301526116d88161169c565b9050919050565b60006060820190506116f460008301866113f0565b61170160208301856113f0565b61170e60408301846113c6565b949350505050565b7f4e487b7100000000000000000000000000000000000000000000000000000000600052601260045260246000fd5b7f4e487b7100000000000000000000000000000000000000000000000000000000600052601160045260246000fd5b600061177f826112c5565b915061178a836112c5565b92508261179a57611799611716565b5b828204905092915050565b60006117b0826112c5565b91506117bb836112c5565b92508282026117c9816112c5565b915082820484148315176117e0576117df611745565b5b5092915050565b60006117f2826112c5565b91506117fd836112c5565b925082820190508082111561181557611814611745565b5b92915050565b7f216f776e65720000000000000000000000000000000000000000000000000000600082015250565b60006118516006836115f6565b915061185c8261181b565b602082019050919050565b6000602082019050818103600083015261188081611844565b9050919050565b600081905092915050565b50565b60006118a2600083611887565b91506118ad82611892565b600082019050919050565b60006118c382611895565b9150819050919050565b60006118d8826112c5565b91506118e3836112c5565b92508282039050818111156118fb576118fa611745565b5b9291505056fea2646970667358221220eae24a1aed4d8f3117443801aa811affd896b3b10b1094d249602a9895e2ea7f64736f6c63430008110033",
  "linkReferences": {},
  "deployedLinkReferences": {}
}