{
  "_format": "hh-sol-artifact-1",
  "contractName": "MarketPlace",
  "sourceName": "contracts/MarketPlace.sol",
  "abi": [
    {
      "inputs": [
        {
          "internalType": "address",
          "name": "_nftAddress",
          "type": "address"
        }
      ],
      "stateMutability": "nonpayable",
      "type": "constructor"
    },
    {
      "inputs": [
        {
          "internalType": "uint256",
          "name": "_tokenId",
          "type": "uint256"
        },
        {
          "internalType": "address",
          "name": "_author",
          "type": "address"
        },
        {
          "internalType": "uint256",
          "name": "_price",
          "type": "uint256"
        }
      ],
      "name": "addBook",
      "outputs": [],
      "stateMutability": "nonpayable",
      "type": "function"
    },
    {
      "inputs": [],
      "name": "authorClaim",
      "outputs": [],
      "stateMutability": "nonpayable",
      "type": "function"
    },
    {
      "inputs": [
        {
          "internalType": "address",
          "name": "",
          "type": "address"
        }
      ],
      "name": "authorOwed",
      "outputs": [
        {
          "internalType": "uint256",
          "name": "",
          "type": "uint256"
        }
      ],
      "stateMutability": "view",
      "type": "function"
    },
    {
      "inputs": [
        {
          "internalType": "uint256",
          "name": "_tokenId",
          "type": "uint256"
        }
      ],
      "name": "borrowNFT",
      "outputs": [],
      "stateMutability": "payable",
      "type": "function"
    },
    {
      "inputs": [],
      "name": "cycle",
      "outputs": [
        {
          "internalType": "uint256",
          "name": "",
          "type": "uint256"
        }
      ],
      "stateMutability": "view",
      "type": "function"
    },
    {
      "inputs": [
        {
          "internalType": "uint256",
          "name": "_tokenId",
          "type": "uint256"
        }
      ],
      "name": "extend",
      "outputs": [],
      "stateMutability": "payable",
      "type": "function"
    },
    {
      "inputs": [
        {
          "internalType": "uint256",
          "name": "",
          "type": "uint256"
        }
      ],
      "name": "idToBook",
      "outputs": [
        {
          "internalType": "address",
          "name": "author",
          "type": "address"
        },
        {
          "internalType": "uint256",
          "name": "price",
          "type": "uint256"
        }
      ],
      "stateMutability": "view",
      "type": "function"
    },
    {
      "inputs": [
        {
          "internalType": "uint256",
          "name": "",
          "type": "uint256"
        }
      ],
      "name": "idToDeets",
      "outputs": [
        {
          "internalType": "uint256",
          "name": "tokenId",
          "type": "uint256"
        },
        {
          "internalType": "uint256",
          "name": "borrowTime",
          "type": "uint256"
        },
        {
          "internalType": "uint256",
          "name": "expiration",
          "type": "uint256"
        }
      ],
      "stateMutability": "view",
      "type": "function"
    },
    {
      "inputs": [
        {
          "internalType": "uint256",
          "name": "_tokenId",
          "type": "uint256"
        }
      ],
      "name": "liquidate",
      "outputs": [],
      "stateMutability": "nonpayable",
      "type": "function"
    },
    {
      "inputs": [],
      "name": "nftContract",
      "outputs": [
        {
          "internalType": "contract IPublicLock",
          "name": "",
          "type": "address"
        }
      ],
      "stateMutability": "view",
      "type": "function"
    },
    {
      "inputs": [],
      "name": "owner",
      "outputs": [
        {
          "internalType": "address",
          "name": "",
          "type": "address"
        }
      ],
      "stateMutability": "view",
      "type": "function"
    },
    {
      "inputs": [
        {
          "internalType": "uint256",
          "name": "_tokenId",
          "type": "uint256"
        }
      ],
      "name": "returnNFT",
      "outputs": [],
      "stateMutability": "nonpayable",
      "type": "function"
    },
    {
      "inputs": [
        {
          "internalType": "address",
          "name": "_authorAddress",
          "type": "address"
        },
        {
          "internalType": "uint256",
          "name": "_tokenId",
          "type": "uint256"
        }
      ],
      "name": "setAuthorAddress",
      "outputs": [],
      "stateMutability": "nonpayable",
      "type": "function"
    },
    {
      "inputs": [
        {
          "internalType": "address",
          "name": "_oldAuthor",
          "type": "address"
        },
        {
          "internalType": "address",
          "name": "_newAuthor",
          "type": "address"
        }
      ],
      "name": "transferAuthors",
      "outputs": [],
      "stateMutability": "nonpayable",
      "type": "function"
    }
  ],
  "bytecode": "0x60806040523480156200001157600080fd5b506040516200182138038062001821833981810160405281019062000037919062000129565b806000806101000a81548173ffffffffffffffffffffffffffffffffffffffff021916908373ffffffffffffffffffffffffffffffffffffffff16021790555033600160006101000a81548173ffffffffffffffffffffffffffffffffffffffff021916908373ffffffffffffffffffffffffffffffffffffffff160217905550506200015b565b600080fd5b600073ffffffffffffffffffffffffffffffffffffffff82169050919050565b6000620000f182620000c4565b9050919050565b6200010381620000e4565b81146200010f57600080fd5b50565b6000815190506200012381620000f8565b92915050565b600060208284031215620001425762000141620000bf565b5b6000620001528482850162000112565b91505092915050565b6116b6806200016b6000396000f3fe6080604052600436106100dd5760003560e01c80639714378c1161007f578063b7e127a311610059578063b7e127a31461026a578063c3fa3194146102a7578063d56d229d146102e5578063dda0fab214610310576100dd565b80639714378c146101fc5780639cd00e4614610218578063b0cd2aa014610241576100dd565b80636190c9d5116100bb5780636190c9d5146101505780637e2ba0f71461017b5780638da5cb5b14610192578063918545c1146101bd576100dd565b8063415f1240146100e2578063529062fa1461010b578063612bf38114610127575b600080fd5b3480156100ee57600080fd5b5061010960048036038101906101049190611152565b610339565b005b61012560048036038101906101209190611152565b610416565b005b34801561013357600080fd5b5061014e600480360381019061014991906111dd565b6106c8565b005b34801561015c57600080fd5b50610165610822565b604051610172919061122c565b60405180910390f35b34801561018757600080fd5b50610190610829565b005b34801561019e57600080fd5b506101a7610966565b6040516101b49190611256565b60405180910390f35b3480156101c957600080fd5b506101e460048036038101906101df9190611152565b61098c565b6040516101f393929190611271565b60405180910390f35b61021660048036038101906102119190611152565b6109b6565b005b34801561022457600080fd5b5061023f600480360381019061023a91906112a8565b610b7e565b005b34801561024d57600080fd5b5061026860048036038101906102639190611152565b610c67565b005b34801561027657600080fd5b50610291600480360381019061028c91906112e8565b610f70565b60405161029e919061122c565b60405180910390f35b3480156102b357600080fd5b506102ce60048036038101906102c99190611152565b610f88565b6040516102dc929190611315565b60405180910390f35b3480156102f157600080fd5b506102fa610fcc565b604051610307919061139d565b60405180910390f35b34801561031c57600080fd5b50610337600480360381019061033291906113b8565b610ff0565b005b42600360008381526020019081526020016000206002015411156104135760008054906101000a900473ffffffffffffffffffffffffffffffffffffffff1673ffffffffffffffffffffffffffffffffffffffff1663407dc58930836040518363ffffffff1660e01b81526004016103b2929190611315565b600060405180830381600087803b1580156103cc57600080fd5b505af11580156103e0573d6000803e3d6000fd5b50505050600360008281526020019081526020016000206000808201600090556001820160009055600282016000905550505b50565b3073ffffffffffffffffffffffffffffffffffffffff1660008054906101000a900473ffffffffffffffffffffffffffffffffffffffff1673ffffffffffffffffffffffffffffffffffffffff16636352211e836040518263ffffffff1660e01b8152600401610486919061122c565b602060405180830381865afa1580156104a3573d6000803e3d6000fd5b505050506040513d601f19601f820116820180604052508101906104c79190611420565b73ffffffffffffffffffffffffffffffffffffffff16146104e757600080fd5b6002600082815260200190815260200160002060010154341161050957600080fd5b60008054906101000a900473ffffffffffffffffffffffffffffffffffffffff1673ffffffffffffffffffffffffffffffffffffffff16630c2db8d13033846040518463ffffffff1660e01b81526004016105669392919061144d565b600060405180830381600087803b15801561058057600080fd5b505af1158015610594573d6000803e3d6000fd5b5050505060006213c6806002600084815260200190815260200160002060010154346105c091906114e2565b6105ca9190611513565b9050600081426105da9190611555565b905060405180606001604052808481526020014281526020018281525060036000858152602001908152602001600020600082015181600001556020820151816001015560408201518160020155905050600a3461063891906114e2565b600460006002600087815260200190815260200160002060000160009054906101000a900473ffffffffffffffffffffffffffffffffffffffff1673ffffffffffffffffffffffffffffffffffffffff1673ffffffffffffffffffffffffffffffffffffffff16815260200190815260200160002060008282546106bc9190611555565b92505081905550505050565b600160009054906101000a900473ffffffffffffffffffffffffffffffffffffffff1673ffffffffffffffffffffffffffffffffffffffff163373ffffffffffffffffffffffffffffffffffffffff1614610758576040517f08c379a000000000000000000000000000000000000000000000000000000000815260040161074f906115e6565b60405180910390fd5b600460008373ffffffffffffffffffffffffffffffffffffffff1673ffffffffffffffffffffffffffffffffffffffff16815260200190815260200160002054600460008373ffffffffffffffffffffffffffffffffffffffff1673ffffffffffffffffffffffffffffffffffffffff16815260200190815260200160002081905550600460008373ffffffffffffffffffffffffffffffffffffffff1673ffffffffffffffffffffffffffffffffffffffff168152602001908152602001600020600090555050565b6213c68081565b6000600460003373ffffffffffffffffffffffffffffffffffffffff1673ffffffffffffffffffffffffffffffffffffffff168152602001908152602001600020541161087557600080fd5b60003373ffffffffffffffffffffffffffffffffffffffff16600460003373ffffffffffffffffffffffffffffffffffffffff1673ffffffffffffffffffffffffffffffffffffffff168152602001908152602001600020546040516108da90611637565b60006040518083038185875af1925050503d8060008114610917576040519150601f19603f3d011682016040523d82523d6000602084013e61091c565b606091505b50509050600460003373ffffffffffffffffffffffffffffffffffffffff1673ffffffffffffffffffffffffffffffffffffffff1681526020019081526020016000206000905550565b600160009054906101000a900473ffffffffffffffffffffffffffffffffffffffff1681565b60036020528060005260406000206000915090508060000154908060010154908060020154905083565b3373ffffffffffffffffffffffffffffffffffffffff1660008054906101000a900473ffffffffffffffffffffffffffffffffffffffff1673ffffffffffffffffffffffffffffffffffffffff16636352211e836040518263ffffffff1660e01b8152600401610a26919061122c565b602060405180830381865afa158015610a43573d6000803e3d6000fd5b505050506040513d601f19601f82011682018060405250810190610a679190611420565b73ffffffffffffffffffffffffffffffffffffffff1614610a8757600080fd5b6213c680600260008381526020019081526020016000206001015434610aad91906114e2565b610ab79190611513565b600360008381526020019081526020016000206002016000828254610adc9190611555565b92505081905550600a34610af091906114e2565b600460006002600085815260200190815260200160002060000160009054906101000a900473ffffffffffffffffffffffffffffffffffffffff1673ffffffffffffffffffffffffffffffffffffffff1673ffffffffffffffffffffffffffffffffffffffff1681526020019081526020016000206000828254610b749190611555565b9250508190555050565b600160009054906101000a900473ffffffffffffffffffffffffffffffffffffffff1673ffffffffffffffffffffffffffffffffffffffff163373ffffffffffffffffffffffffffffffffffffffff1614610c0e576040517f08c379a0000000000000000000000000000000000000000000000000000000008152600401610c05906115e6565b60405180910390fd5b816002600083815260200190815260200160002060000160006101000a81548173ffffffffffffffffffffffffffffffffffffffff021916908373ffffffffffffffffffffffffffffffffffffffff1602179055505050565b3373ffffffffffffffffffffffffffffffffffffffff1660008054906101000a900473ffffffffffffffffffffffffffffffffffffffff1673ffffffffffffffffffffffffffffffffffffffff16636352211e836040518263ffffffff1660e01b8152600401610cd7919061122c565b602060405180830381865afa158015610cf4573d6000803e3d6000fd5b505050506040513d601f19601f82011682018060405250810190610d189190611420565b73ffffffffffffffffffffffffffffffffffffffff1614610d3857600080fd5b60008054906101000a900473ffffffffffffffffffffffffffffffffffffffff1673ffffffffffffffffffffffffffffffffffffffff1663407dc58930836040518363ffffffff1660e01b8152600401610d93929190611315565b600060405180830381600087803b158015610dad57600080fd5b505af1158015610dc1573d6000803e3d6000fd5b505050504260036000838152602001908152602001600020600201541015610f3f57600060026000838152602001908152602001600020600101546213c680426003600086815260200190815260200160002060020154610e22919061164c565b610e2c91906114e2565b610e369190611513565b905060003373ffffffffffffffffffffffffffffffffffffffff1682604051610e5e90611637565b60006040518083038185875af1925050503d8060008114610e9b576040519150601f19603f3d011682016040523d82523d6000602084013e610ea0565b606091505b50509050600a82610eb191906114e2565b600460006002600087815260200190815260200160002060000160009054906101000a900473ffffffffffffffffffffffffffffffffffffffff1673ffffffffffffffffffffffffffffffffffffffff1673ffffffffffffffffffffffffffffffffffffffff1681526020019081526020016000206000828254610f35919061164c565b9250508190555050505b6003600082815260200190815260200160002060008082016000905560018201600090556002820160009055505050565b60046020528060005260406000206000915090505481565b60026020528060005260406000206000915090508060000160009054906101000a900473ffffffffffffffffffffffffffffffffffffffff16908060010154905082565b60008054906101000a900473ffffffffffffffffffffffffffffffffffffffff1681565b600160009054906101000a900473ffffffffffffffffffffffffffffffffffffffff1673ffffffffffffffffffffffffffffffffffffffff163373ffffffffffffffffffffffffffffffffffffffff1614611080576040517f08c379a0000000000000000000000000000000000000000000000000000000008152600401611077906115e6565b60405180910390fd5b60405180604001604052808373ffffffffffffffffffffffffffffffffffffffff168152602001828152506002600085815260200190815260200160002060008201518160000160006101000a81548173ffffffffffffffffffffffffffffffffffffffff021916908373ffffffffffffffffffffffffffffffffffffffff16021790555060208201518160010155905050505050565b600080fd5b6000819050919050565b61112f8161111c565b811461113a57600080fd5b50565b60008135905061114c81611126565b92915050565b60006020828403121561116857611167611117565b5b60006111768482850161113d565b91505092915050565b600073ffffffffffffffffffffffffffffffffffffffff82169050919050565b60006111aa8261117f565b9050919050565b6111ba8161119f565b81146111c557600080fd5b50565b6000813590506111d7816111b1565b92915050565b600080604083850312156111f4576111f3611117565b5b6000611202858286016111c8565b9250506020611213858286016111c8565b9150509250929050565b6112268161111c565b82525050565b6000602082019050611241600083018461121d565b92915050565b6112508161119f565b82525050565b600060208201905061126b6000830184611247565b92915050565b6000606082019050611286600083018661121d565b611293602083018561121d565b6112a0604083018461121d565b949350505050565b600080604083850312156112bf576112be611117565b5b60006112cd858286016111c8565b92505060206112de8582860161113d565b9150509250929050565b6000602082840312156112fe576112fd611117565b5b600061130c848285016111c8565b91505092915050565b600060408201905061132a6000830185611247565b611337602083018461121d565b9392505050565b6000819050919050565b600061136361135e6113598461117f565b61133e565b61117f565b9050919050565b600061137582611348565b9050919050565b60006113878261136a565b9050919050565b6113978161137c565b82525050565b60006020820190506113b2600083018461138e565b92915050565b6000806000606084860312156113d1576113d0611117565b5b60006113df8682870161113d565b93505060206113f0868287016111c8565b92505060406114018682870161113d565b9150509250925092565b60008151905061141a816111b1565b92915050565b60006020828403121561143657611435611117565b5b60006114448482850161140b565b91505092915050565b60006060820190506114626000830186611247565b61146f6020830185611247565b61147c604083018461121d565b949350505050565b7f4e487b7100000000000000000000000000000000000000000000000000000000600052601260045260246000fd5b7f4e487b7100000000000000000000000000000000000000000000000000000000600052601160045260246000fd5b60006114ed8261111c565b91506114f88361111c565b92508261150857611507611484565b5b828204905092915050565b600061151e8261111c565b91506115298361111c565b92508282026115378161111c565b9150828204841483151761154e5761154d6114b3565b5b5092915050565b60006115608261111c565b915061156b8361111c565b9250828201905080821115611583576115826114b3565b5b92915050565b600082825260208201905092915050565b7f216f776e65720000000000000000000000000000000000000000000000000000600082015250565b60006115d0600683611589565b91506115db8261159a565b602082019050919050565b600060208201905081810360008301526115ff816115c3565b9050919050565b600081905092915050565b50565b6000611621600083611606565b915061162c82611611565b600082019050919050565b600061164282611614565b9150819050919050565b60006116578261111c565b91506116628361111c565b925082820390508181111561167a576116796114b3565b5b9291505056fea2646970667358221220dc605d9b643de1d0494d1e307f09e159f426393711b5551252ea755dec93c4ef64736f6c63430008110033",
  "linkReferences": {},
  "deployedLinkReferences": {}
}