{
  "_format": "hh-sol-artifact-1",
  "contractName": "MarketPlace",
  "sourceName": "contracts/MarketPlace.sol",
  "abi": [
    {
      "inputs": [
        {
          "internalType": "address",
          "name": "_nftAddress",
          "type": "address"
        }
      ],
      "stateMutability": "nonpayable",
      "type": "constructor"
    },
    {
      "inputs": [
        {
          "internalType": "uint256",
          "name": "_tokenId",
          "type": "uint256"
        },
        {
          "internalType": "address",
          "name": "_author",
          "type": "address"
        },
        {
          "internalType": "uint256",
          "name": "_price",
          "type": "uint256"
        }
      ],
      "name": "addBook",
      "outputs": [],
      "stateMutability": "nonpayable",
      "type": "function"
    },
    {
      "inputs": [],
      "name": "authorClaim",
      "outputs": [],
      "stateMutability": "nonpayable",
      "type": "function"
    },
    {
      "inputs": [
        {
          "internalType": "address",
          "name": "",
          "type": "address"
        }
      ],
      "name": "authorOwed",
      "outputs": [
        {
          "internalType": "uint256",
          "name": "",
          "type": "uint256"
        }
      ],
      "stateMutability": "view",
      "type": "function"
    },
    {
      "inputs": [
        {
          "internalType": "uint256",
          "name": "_tokenId",
          "type": "uint256"
        }
      ],
      "name": "borrowNFT",
      "outputs": [],
      "stateMutability": "payable",
      "type": "function"
    },
    {
      "inputs": [
        {
          "internalType": "address",
          "name": "_newNFT",
          "type": "address"
        }
      ],
      "name": "changeNFT",
      "outputs": [],
      "stateMutability": "nonpayable",
      "type": "function"
    },
    {
      "inputs": [],
      "name": "cycle",
      "outputs": [
        {
          "internalType": "uint256",
          "name": "",
          "type": "uint256"
        }
      ],
      "stateMutability": "view",
      "type": "function"
    },
    {
      "inputs": [
        {
          "internalType": "uint256",
          "name": "_tokenId",
          "type": "uint256"
        }
      ],
      "name": "extend",
      "outputs": [],
      "stateMutability": "payable",
      "type": "function"
    },
    {
      "inputs": [
        {
          "internalType": "uint256",
          "name": "",
          "type": "uint256"
        }
      ],
      "name": "idToBook",
      "outputs": [
        {
          "internalType": "address",
          "name": "author",
          "type": "address"
        },
        {
          "internalType": "uint256",
          "name": "price",
          "type": "uint256"
        }
      ],
      "stateMutability": "view",
      "type": "function"
    },
    {
      "inputs": [
        {
          "internalType": "uint256",
          "name": "",
          "type": "uint256"
        }
      ],
      "name": "idToDetails",
      "outputs": [
        {
          "internalType": "uint256",
          "name": "tokenId",
          "type": "uint256"
        },
        {
          "internalType": "uint256",
          "name": "borrowTime",
          "type": "uint256"
        },
        {
          "internalType": "uint256",
          "name": "expirationTime",
          "type": "uint256"
        }
      ],
      "stateMutability": "view",
      "type": "function"
    },
    {
      "inputs": [
        {
          "internalType": "uint256",
          "name": "_tokenId",
          "type": "uint256"
        }
      ],
      "name": "liquidate",
      "outputs": [],
      "stateMutability": "nonpayable",
      "type": "function"
    },
    {
      "inputs": [],
      "name": "nftContract",
      "outputs": [
        {
          "internalType": "contract IPublicLock",
          "name": "",
          "type": "address"
        }
      ],
      "stateMutability": "view",
      "type": "function"
    },
    {
      "inputs": [],
      "name": "owner",
      "outputs": [
        {
          "internalType": "address",
          "name": "",
          "type": "address"
        }
      ],
      "stateMutability": "view",
      "type": "function"
    },
    {
      "inputs": [
        {
          "internalType": "uint256",
          "name": "_tokenId",
          "type": "uint256"
        }
      ],
      "name": "returnNFT",
      "outputs": [],
      "stateMutability": "nonpayable",
      "type": "function"
    },
    {
      "inputs": [
        {
          "internalType": "address",
          "name": "_authorAddress",
          "type": "address"
        },
        {
          "internalType": "uint256",
          "name": "_tokenId",
          "type": "uint256"
        }
      ],
      "name": "setAuthorAddress",
      "outputs": [],
      "stateMutability": "nonpayable",
      "type": "function"
    },
    {
      "inputs": [
        {
          "internalType": "address",
          "name": "_oldAuthor",
          "type": "address"
        },
        {
          "internalType": "address",
          "name": "_newAuthor",
          "type": "address"
        }
      ],
      "name": "transferAuthors",
      "outputs": [],
      "stateMutability": "nonpayable",
      "type": "function"
    }
  ],
  "bytecode": "0x60806040523480156200001157600080fd5b5060405162001aa338038062001aa3833981810160405281019062000037919062000129565b806000806101000a81548173ffffffffffffffffffffffffffffffffffffffff021916908373ffffffffffffffffffffffffffffffffffffffff16021790555033600160006101000a81548173ffffffffffffffffffffffffffffffffffffffff021916908373ffffffffffffffffffffffffffffffffffffffff160217905550506200015b565b600080fd5b600073ffffffffffffffffffffffffffffffffffffffff82169050919050565b6000620000f182620000c4565b9050919050565b6200010381620000e4565b81146200010f57600080fd5b50565b6000815190506200012381620000f8565b92915050565b600060208284031215620001425762000141620000bf565b5b6000620001528482850162000112565b91505092915050565b611938806200016b6000396000f3fe6080604052600436106100e85760003560e01c80639cd00e461161008a578063c3fa319411610059578063c3fa31941461029c578063d2e584a5146102da578063d56d229d14610319578063dda0fab214610344576100e8565b80639cd00e46146101e4578063a907dded1461020d578063b0cd2aa014610236578063b7e127a31461025f576100e8565b80636190c9d5116100c65780636190c9d51461015b5780637e2ba0f7146101865780638da5cb5b1461019d5780639714378c146101c8576100e8565b8063415f1240146100ed578063529062fa14610116578063612bf38114610132575b600080fd5b3480156100f957600080fd5b50610114600480360381019061010f91906112fc565b61036d565b005b610130600480360381019061012b91906112fc565b61044a565b005b34801561013e57600080fd5b5061015960048036038101906101549190611387565b610769565b005b34801561016757600080fd5b506101706108c3565b60405161017d91906113d6565b60405180910390f35b34801561019257600080fd5b5061019b6108ca565b005b3480156101a957600080fd5b506101b2610a07565b6040516101bf9190611400565b60405180910390f35b6101e260048036038101906101dd91906112fc565b610a2d565b005b3480156101f057600080fd5b5061020b6004803603810190610206919061141b565b610bf5565b005b34801561021957600080fd5b50610234600480360381019061022f919061145b565b610cde565b005b34801561024257600080fd5b5061025d600480360381019061025891906112fc565b610db1565b005b34801561026b57600080fd5b506102866004803603810190610281919061145b565b6110f0565b60405161029391906113d6565b60405180910390f35b3480156102a857600080fd5b506102c360048036038101906102be91906112fc565b611108565b6040516102d1929190611488565b60405180910390f35b3480156102e657600080fd5b5061030160048036038101906102fc91906112fc565b61114c565b604051610310939291906114b1565b60405180910390f35b34801561032557600080fd5b5061032e611176565b60405161033b9190611547565b60405180910390f35b34801561035057600080fd5b5061036b60048036038101906103669190611562565b61119a565b005b42600360008381526020019081526020016000206002015411156104475760008054906101000a900473ffffffffffffffffffffffffffffffffffffffff1673ffffffffffffffffffffffffffffffffffffffff1663407dc58930836040518363ffffffff1660e01b81526004016103e6929190611488565b600060405180830381600087803b15801561040057600080fd5b505af1158015610414573d6000803e3d6000fd5b50505050600360008281526020019081526020016000206000808201600090556001820160009055600282016000905550505b50565b3073ffffffffffffffffffffffffffffffffffffffff1660008054906101000a900473ffffffffffffffffffffffffffffffffffffffff1673ffffffffffffffffffffffffffffffffffffffff16636352211e836040518263ffffffff1660e01b81526004016104ba91906113d6565b602060405180830381865afa1580156104d7573d6000803e3d6000fd5b505050506040513d601f19601f820116820180604052508101906104fb91906115ca565b73ffffffffffffffffffffffffffffffffffffffff1614610551576040517f08c379a000000000000000000000000000000000000000000000000000000000815260040161054890611654565b60405180910390fd5b60026000828152602001908152602001600020600101543410156105aa576040517f08c379a00000000000000000000000000000000000000000000000000000000081526004016105a1906116c0565b60405180910390fd5b60008054906101000a900473ffffffffffffffffffffffffffffffffffffffff1673ffffffffffffffffffffffffffffffffffffffff16630c2db8d13033846040518463ffffffff1660e01b8152600401610607939291906116e0565b600060405180830381600087803b15801561062157600080fd5b505af1158015610635573d6000803e3d6000fd5b5050505060006213c6806002600084815260200190815260200160002060010154346106619190611775565b61066b91906117a6565b90506000814261067b91906117e8565b905060405180606001604052808481526020014281526020018281525060036000858152602001908152602001600020600082015181600001556020820151816001015560408201518160020155905050600a346106d99190611775565b600460006002600087815260200190815260200160002060000160009054906101000a900473ffffffffffffffffffffffffffffffffffffffff1673ffffffffffffffffffffffffffffffffffffffff1673ffffffffffffffffffffffffffffffffffffffff168152602001908152602001600020600082825461075d91906117e8565b92505081905550505050565b600160009054906101000a900473ffffffffffffffffffffffffffffffffffffffff1673ffffffffffffffffffffffffffffffffffffffff163373ffffffffffffffffffffffffffffffffffffffff16146107f9576040517f08c379a00000000000000000000000000000000000000000000000000000000081526004016107f090611868565b60405180910390fd5b600460008373ffffffffffffffffffffffffffffffffffffffff1673ffffffffffffffffffffffffffffffffffffffff16815260200190815260200160002054600460008373ffffffffffffffffffffffffffffffffffffffff1673ffffffffffffffffffffffffffffffffffffffff16815260200190815260200160002081905550600460008373ffffffffffffffffffffffffffffffffffffffff1673ffffffffffffffffffffffffffffffffffffffff168152602001908152602001600020600090555050565b6213c68081565b6000600460003373ffffffffffffffffffffffffffffffffffffffff1673ffffffffffffffffffffffffffffffffffffffff168152602001908152602001600020541161091657600080fd5b60003373ffffffffffffffffffffffffffffffffffffffff16600460003373ffffffffffffffffffffffffffffffffffffffff1673ffffffffffffffffffffffffffffffffffffffff1681526020019081526020016000205460405161097b906118b9565b60006040518083038185875af1925050503d80600081146109b8576040519150601f19603f3d011682016040523d82523d6000602084013e6109bd565b606091505b50509050600460003373ffffffffffffffffffffffffffffffffffffffff1673ffffffffffffffffffffffffffffffffffffffff1681526020019081526020016000206000905550565b600160009054906101000a900473ffffffffffffffffffffffffffffffffffffffff1681565b3373ffffffffffffffffffffffffffffffffffffffff1660008054906101000a900473ffffffffffffffffffffffffffffffffffffffff1673ffffffffffffffffffffffffffffffffffffffff16636352211e836040518263ffffffff1660e01b8152600401610a9d91906113d6565b602060405180830381865afa158015610aba573d6000803e3d6000fd5b505050506040513d601f19601f82011682018060405250810190610ade91906115ca565b73ffffffffffffffffffffffffffffffffffffffff1614610afe57600080fd5b6213c680600260008381526020019081526020016000206001015434610b249190611775565b610b2e91906117a6565b600360008381526020019081526020016000206002016000828254610b5391906117e8565b92505081905550600a34610b679190611775565b600460006002600085815260200190815260200160002060000160009054906101000a900473ffffffffffffffffffffffffffffffffffffffff1673ffffffffffffffffffffffffffffffffffffffff1673ffffffffffffffffffffffffffffffffffffffff1681526020019081526020016000206000828254610beb91906117e8565b9250508190555050565b600160009054906101000a900473ffffffffffffffffffffffffffffffffffffffff1673ffffffffffffffffffffffffffffffffffffffff163373ffffffffffffffffffffffffffffffffffffffff1614610c85576040517f08c379a0000000000000000000000000000000000000000000000000000000008152600401610c7c90611868565b60405180910390fd5b816002600083815260200190815260200160002060000160006101000a81548173ffffffffffffffffffffffffffffffffffffffff021916908373ffffffffffffffffffffffffffffffffffffffff1602179055505050565b600160009054906101000a900473ffffffffffffffffffffffffffffffffffffffff1673ffffffffffffffffffffffffffffffffffffffff163373ffffffffffffffffffffffffffffffffffffffff1614610d6e576040517f08c379a0000000000000000000000000000000000000000000000000000000008152600401610d6590611868565b60405180910390fd5b806000806101000a81548173ffffffffffffffffffffffffffffffffffffffff021916908373ffffffffffffffffffffffffffffffffffffffff16021790555050565b3373ffffffffffffffffffffffffffffffffffffffff1660008054906101000a900473ffffffffffffffffffffffffffffffffffffffff1673ffffffffffffffffffffffffffffffffffffffff16636352211e836040518263ffffffff1660e01b8152600401610e2191906113d6565b602060405180830381865afa158015610e3e573d6000803e3d6000fd5b505050506040513d601f19601f82011682018060405250810190610e6291906115ca565b73ffffffffffffffffffffffffffffffffffffffff1614610eb8576040517f08c379a0000000000000000000000000000000000000000000000000000000008152600401610eaf90611868565b60405180910390fd5b60008054906101000a900473ffffffffffffffffffffffffffffffffffffffff1673ffffffffffffffffffffffffffffffffffffffff1663407dc58930836040518363ffffffff1660e01b8152600401610f13929190611488565b600060405180830381600087803b158015610f2d57600080fd5b505af1158015610f41573d6000803e3d6000fd5b5050505042600360008381526020019081526020016000206002015410156110bf57600060026000838152602001908152602001600020600101546213c680426003600086815260200190815260200160002060020154610fa291906118ce565b610fac9190611775565b610fb691906117a6565b905060003373ffffffffffffffffffffffffffffffffffffffff1682604051610fde906118b9565b60006040518083038185875af1925050503d806000811461101b576040519150601f19603f3d011682016040523d82523d6000602084013e611020565b606091505b50509050600a826110319190611775565b600460006002600087815260200190815260200160002060000160009054906101000a900473ffffffffffffffffffffffffffffffffffffffff1673ffffffffffffffffffffffffffffffffffffffff1673ffffffffffffffffffffffffffffffffffffffff16815260200190815260200160002060008282546110b591906118ce565b9250508190555050505b6003600082815260200190815260200160002060008082016000905560018201600090556002820160009055505050565b60046020528060005260406000206000915090505481565b60026020528060005260406000206000915090508060000160009054906101000a900473ffffffffffffffffffffffffffffffffffffffff16908060010154905082565b60036020528060005260406000206000915090508060000154908060010154908060020154905083565b60008054906101000a900473ffffffffffffffffffffffffffffffffffffffff1681565b600160009054906101000a900473ffffffffffffffffffffffffffffffffffffffff1673ffffffffffffffffffffffffffffffffffffffff163373ffffffffffffffffffffffffffffffffffffffff161461122a576040517f08c379a000000000000000000000000000000000000000000000000000000000815260040161122190611868565b60405180910390fd5b60405180604001604052808373ffffffffffffffffffffffffffffffffffffffff168152602001828152506002600085815260200190815260200160002060008201518160000160006101000a81548173ffffffffffffffffffffffffffffffffffffffff021916908373ffffffffffffffffffffffffffffffffffffffff16021790555060208201518160010155905050505050565b600080fd5b6000819050919050565b6112d9816112c6565b81146112e457600080fd5b50565b6000813590506112f6816112d0565b92915050565b600060208284031215611312576113116112c1565b5b6000611320848285016112e7565b91505092915050565b600073ffffffffffffffffffffffffffffffffffffffff82169050919050565b600061135482611329565b9050919050565b61136481611349565b811461136f57600080fd5b50565b6000813590506113818161135b565b92915050565b6000806040838503121561139e5761139d6112c1565b5b60006113ac85828601611372565b92505060206113bd85828601611372565b9150509250929050565b6113d0816112c6565b82525050565b60006020820190506113eb60008301846113c7565b92915050565b6113fa81611349565b82525050565b600060208201905061141560008301846113f1565b92915050565b60008060408385031215611432576114316112c1565b5b600061144085828601611372565b9250506020611451858286016112e7565b9150509250929050565b600060208284031215611471576114706112c1565b5b600061147f84828501611372565b91505092915050565b600060408201905061149d60008301856113f1565b6114aa60208301846113c7565b9392505050565b60006060820190506114c660008301866113c7565b6114d360208301856113c7565b6114e060408301846113c7565b949350505050565b6000819050919050565b600061150d61150861150384611329565b6114e8565b611329565b9050919050565b600061151f826114f2565b9050919050565b600061153182611514565b9050919050565b61154181611526565b82525050565b600060208201905061155c6000830184611538565b92915050565b60008060006060848603121561157b5761157a6112c1565b5b6000611589868287016112e7565b935050602061159a86828701611372565b92505060406115ab868287016112e7565b9150509250925092565b6000815190506115c48161135b565b92915050565b6000602082840312156115e0576115df6112c1565b5b60006115ee848285016115b5565b91505092915050565b600082825260208201905092915050565b7f2173616c65000000000000000000000000000000000000000000000000000000600082015250565b600061163e6005836115f7565b915061164982611608565b602082019050919050565b6000602082019050818103600083015261166d81611631565b9050919050565b7f2165746800000000000000000000000000000000000000000000000000000000600082015250565b60006116aa6004836115f7565b91506116b582611674565b602082019050919050565b600060208201905081810360008301526116d98161169d565b9050919050565b60006060820190506116f560008301866113f1565b61170260208301856113f1565b61170f60408301846113c7565b949350505050565b7f4e487b7100000000000000000000000000000000000000000000000000000000600052601260045260246000fd5b7f4e487b7100000000000000000000000000000000000000000000000000000000600052601160045260246000fd5b6000611780826112c6565b915061178b836112c6565b92508261179b5761179a611717565b5b828204905092915050565b60006117b1826112c6565b91506117bc836112c6565b92508282026117ca816112c6565b915082820484148315176117e1576117e0611746565b5b5092915050565b60006117f3826112c6565b91506117fe836112c6565b925082820190508082111561181657611815611746565b5b92915050565b7f216f776e65720000000000000000000000000000000000000000000000000000600082015250565b60006118526006836115f7565b915061185d8261181c565b602082019050919050565b6000602082019050818103600083015261188181611845565b9050919050565b600081905092915050565b50565b60006118a3600083611888565b91506118ae82611893565b600082019050919050565b60006118c482611896565b9150819050919050565b60006118d9826112c6565b91506118e4836112c6565b92508282039050818111156118fc576118fb611746565b5b9291505056fea2646970667358221220bfbcc95535972997aa1fc5afeebfea3ceb1293b5a3de21d8ac7ae5e1646d882764736f6c63430008110033",
  "linkReferences": {},
  "deployedLinkReferences": {}
}